:040000000EC0FECF61
:1000040061C0B0C0FBCFFACFF9CFF8CFF7CFF6CFAE
:100014004C040200040014000000F894EE27ECBB2A
:10002400E5BF8DE0A2E0ED938A95E9F780E4A0E6D0
:10003400ED938A95E9F7E6E1F0E0C8953196802DD5
:10004400C8953196902D0097B9F0C8953196A02D9A
:10005400C8953196B02DC8953196102CC895319617
:100064006E2F7F2FF02DE12DC89531960D920197BB
:10007400D9F7E62FF72FE1CFEFE9EDBFC5E708C1C8
:10008400AA93E881E03069F4EA81A481A23041F4C2
:10009400E981AA81AF5FEC93AA81AC5FE3E0EC93C2
:1000A40010C0EA81E481E03061F4E981AA81EC9333
:1000B400AE5FE0E0F0E0ED93FC93AA81AC5FE1E099
:1000C400EC93E4C006D10A93A0E0B399A1E0D8DF91
:1000D400EBE7EA930A93A0E0B499A1E0D1DF49C029
:1000E400AA9309D173D10AD1EB3CA8E0FA07A0E0A6
:1000F4006A07A0E07A072CF0A981AB5FE0E0EC93FB
:1001040000D1E981A481A33030F4F5D0ED91FD91C3
:100114003196FE93EE93E981A481A13079F4A9810B
:10012400EC91A881AE1730F0E6D0ED91FD913197B6
:10013400FE93EE93A981AC5FE2E011C0E981A48152
:10014400A33071F4E181A881AE1730F0D4D0ED91E1
:10015400FD913196FE93EE93A981AC5FE4E0EC93BC
:1001640022960895B6D0A02FBBDFEBE7EA93A02F29
:10017400B7DF0991E991EFBFF991E991B991A9919B
:100184009991899179916991F990199009901895AB
:10019400AA9320D1C5D0EA81A481A43008F475C003
:1001A400EA81A281B381EA2FFB2FFE2FE0E0AE2F7C
:1001B400BF2FEA81E181F0E0EA0FFB1F0E2E1F2E14
:1001C400AA81AC91BB27EA1BFB0B98D0A8EEB3E045
:1001D40080E090E0B2D0ACD0E0EBF4E060E070E01E
:1001E400CCD00E2F1F2FAA81AE5FF0D0309709F428
:1001F40097D099D0A136E9E0BE07E0E08E07E0E0B1
:100204009E0714F08DD010C08ED0A438E3E0BE0752
:10021400E0E08E07E0E09E0714F482D005C00415E8
:10022400150510F4402E512EE02FF12FE419F50995
:1002340065D0AFEFB0E080E090E07FD079D0E42DDE
:10024400F52D5CD09AD00E2F1F2F0030E1E01E0751
:1002540010F00FEF10E00A31E0E01E0720F4AA814D
:10026400AB5FE0E003C0AA81AB5FE1E0EC9349D06F
:10027400E5E7AA81EA1719F4E02FE6BF02C0E02FF0
:10028400E9BDAA81AC5FE0E0EC93A7D02396089582
:10029400E0E8E6BDE0E0E6BDE3E0E7BBE8E1E8BBBB
:1002A400E3EAEFBDE2E0E3BFE0E0E2BFE6BFE9BDC1
:1002B400E2E0E9BFE0E2EBBFE0E0E5BFE8E1E5BB97
:1002C400E0E2EABF7894A5E763DFABE761DFFBCF49
:1002D400FFCF0A921A92FA926A937A938A939A9324
:1002E400AA93BA93EA93FA93EFB7EA930A9302B7FD
:1002F400E5E7EA930895A981AE5F08956627772715
:100304000895E0917A00E795E0E0E795AE2FE0915B
:100314008000E295E07FEE0FEA2BE360EFBD0895E5
:1003240000E010E00895A02FB12F882799270895A1
:10033400AE2FBF2F862F972F08953F934F935F9330
:1003440051E20A2E1B2E382F492FAA27BB278827B4
:10035400991B09C020F4A00DB11D831F941F96950D
:100364008795B795A79577956795F795E7955A95E6
:1003740089F75F914F913F9108953F934F935F9316
:10038400002411244427552730E2AA0FBB1F881FDD
:10039400991F001C111C441F551F0E1A1F0A460BDF
:1003A400570B28F40E0E1F1E461F571F01C0A160D5
:1003B4003A9559F7EA2FFB2F682F792FA02DB12DED
:1003C400842F952F5F914F913F910895ED91FC916A
:1003D400AA9508951A930A93089519810881089596
:00000001FF
