:020000020000FC
:10000000E9CDADC10000000020C000008DC000009F
:10001000000097C00000000000000000020304067A
:10002000080C10182030406080000406080C1018DE
:100030002030406080A0C0000003070F1F000D0D9E
:1000400004050D050305030302004FB662FD0CC055
:10005000552041F00994C52DC095089483FDC7959E
:10006000C4BD64604FBE1895C0916400089483FDC0
:10007000C795C4BD6B7FC0916400CF3F09F41DC01C
:1000800070FF19C082FD05C04FBEC098C198C298CC
:100090001895C098C198C29876FD0DC064FD0BC03C
:1000A000C7E0CA95F1F7C091B100C0FD939AC1FDB8
:1000B000949AC2FD959A4FBE189524BCCC27C06473
:1000C000C8BF6460F8CFC7CF70FFC5CF64FDC3CF92
:1000D000C09AC1CF70FFBFCF64FDBDCFC19ABBCF67
:1000E00070FFB9CF64FDB7CFC29AB5CF939870FFB8
:1000F000B2CF64FDB0CFC5E0CA95F1F7C09AABCFDF
:10010000949870FFA8CF64FDA6CFC5E0CA95F1F71B
:10011000C19AA1CF959870FF9ECF64FD9CCFC5E09A
:10012000CA95F1F7C29A97CF4FB6C9B7CF7EC9BF6C
:100130006E7FCCB5CE0DDDB5DF1DDBBDCABD4FBEBC
:1001400018953FB68F7EABB7A074A2118061A0E076
:10015000ABBFA9B7AE7FA9BF7894A0916800AA23CE
:1001600041F085FD2EC0A0916800AA95A09368007B
:1001700028C040E050E085FD14C0A0B396FDA095D6
:10018000A2FD4FEFA3E096FDA2E0A5BFAA27A064C1
:10019000AABF8D7FA0B396FDA095A2FD5FEF451786
:1001A00041F7ACE061FDA093680085FD03C0ACE0C1
:1001B000A0936800409396008160442311F0209240
:1001C000990085FD0EC0A0916900AA2331F0A0918D
:1001D0006900AA95A093690004C08061AA27A06461
:1001E000AABF80FF3CC0A09196004A2F61FF8E7F7E
:1001F00085FD1CC0A091B800A430C1F4403F08F0B8
:1002000040EFA42FA295AF704A0F5091BA0053301F
:1002100069F0A695A69550FD01C0A69552FD03C0B4
:10022000A41B4A2F03C04A0F08F44FEF409361000C
:10023000A72FA670A1F073FD12C0A0917000AA0FA5
:10024000AA0F50919E0056955695541708F0452FC9
:100250004A0F4093610018F4AFEFA0936100409102
:10026000B800443009F03EC0A0916100A093630043
:1002700040916300A0919B004A1708F04A2FA0917B
:100280009D004A1708F04A2F542EA091A000AA23DF
:1002900009F422C0542F5A1B10F4A42F50E0BA2E98
:1002A0008894AA1FAA2EA091A200A095AA22A50E0A
:1002B00058F0A091A100A21509F0AA95AA0EA0934A
:1002C000A10048F04A2D08C0A091A100BA1608F07C
:1002D000A395A093A1004FEF409364007F7B485FFC
:1002E00008F07064A0916000A395A093600051F0A5
:1002F000F894A9B7A160A9BF84FF02C0A0E4ABBF76
:100300003FBE1895A0917400A395A093740041E09E
:1003100050916800552329F085FF03C05A955093EA
:100320006800A0919600A13018F0209299000DC0AD
:1003300020929A002092A300A0919900AF5FA09311
:10034000990018F0AFEFA0939900F894A9B7A160B5
:10035000A9BF84FF02C0A0E4ABBF3FBE18953FB663
:100360004CB55DB58F7EABB7A074A2118061A0E0E3
:10037000ABBFA9B7AE7FA9BF789481FD23C0A2E02F
:1003800096FDA3E0A5BF8260A0B396FDA095A2FF55
:1003900005C0409365005093660043C1A3E096FDFD
:1003A000A2E0A5BFAA27A064AABF8D7F85FF01C0D8
:1003B0002BC140E0A0B396FDA095A2FD25C14093BE
:1003C00096000FC1A3E096FDA2E0A5BF8D7F61FF5F
:1003D00071C0A2E096FDA3E0A5BFAA27A064AABFB2
:1003E00082604093910050939200A0908F004A1930
:1003F000B09090005B09BB24A22C4634520518F43F
:100400002092950049C0A091D800AA2359F1443602
:10041000520528F4A0E1BA2EAAE0AA2E23C0443B3C
:10042000A1E05A0728F4A8E0BA2EAFE0AA2E1AC01D
:100430004836A2E05A0728F4A4E0BA2EAEE1AA2E6C
:1004400011C0403DA5E05A0728F4A2E0BA2EACE363
:10045000AA2E08C04C34A8E05A0720F4A1E0BA2E16
:10046000A8E7AA2EC42EA0919300CA1AD52EA09157
:100470009400DA0ADD202AF4AFEFC094D094CA1AAF
:10048000DA0A20929500A8E0A210A0E0CA14DA06C9
:1004900018F4A1E0A093950040939300509394002A
:1004A000409191005091920040938F0050939000A2
:1004B00042E097C0A09165004A1BA09166005A0BCC
:1004C00094FD82C093FD80C092FD7CC086FF03C076
:1004D000D52EC42E0CC05695479591FD73C05695E8
:1004E000479590FD6FC0D52EC42ED694C79461FD5C
:1004F00019C0AC2DAC51AD2DA24008F005C0DD20D7
:1005000089F4AC2DA45670F4A0916700A395AA239A
:1005100011F0A0936700AA3008F476C020929600EC
:10052000816072C0A0916700AA2319F0AA95A093D8
:100530006700A22C5091BE0097FD06C0A090CC0091
:10054000533011F4A090D400ADE7AA0EA22DA21D45
:10055000CA18DA0A4FB74170533049F4442321F0E6
:1005600087FD05C0806803C087FF01C08F774423E3
:1005700059F0533031F4AFEFC094D094CA1ADA0A6C
:1005800003C040E050E020C0533049F4CC0CDD1CE7
:10059000AAE0CA1AD20818F4A0E0CA2ED22CAFEFF3
:1005A000CA16D20418F04FEF50E00EC0A091AC0074
:1005B000CA9E412D000C441F50E008F012C04FEFBE
:1005C00050E00FC05695479594FF07C0552309F09A
:1005D0004FEFA42FA6954A0F521D4F3F520508F02A
:1005E0004FEF409396005091B2002092B2005CB958
:1005F000816061FF09C0AFE1A095A923AB299A2FC3
:100600008F7DBB2009F48062ACE0A093680085FF79
:1006100003C0A5E0A093680061FD03C085FD01C093
:100620008F7E85FD03C0A3E0A0936900F894A9B76D
:10063000A160A9BF84FF02C0A0E4ABBF3FBE189574
:1006400011E00AC013E008C01AE006C01EE104C0B1
:1006500014E602C018EC00C005E1BB27BA95F1F71B
:100660000A95D9F71A95C1F708952DE13CE309C021
:1006700028E136E406C025E13AE503C023E134E68B
:1006800000C0B091AD00BA9509F4089512E0BB27FF
:100690009498BA95F1F7C19ABA95F1F7C198BA95BD
:1006A000F1F7949ABA95F1F7123009F0C09A123026
:1006B00009F4C29AB091AD00BA95F1F7123009F081
:1006C000C098123009F4C298B7E8BA95F1F71A95B4
:1006D000F1F6022FB22FBA95F1F70A95D9F73A95AC
:1006E00081F694980895221B39E0001F3A9509F489
:1006F0000895221F211B18F4210F8894F6CF089427
:10070000F4CF622C722CB0E08894B395221F331F73
:10071000E0F7379527958894912E802E020B130BC6
:1007200010F4192D082D10F4889401C00894661C4B
:10073000771CBA9571F7172D062D0895322D1123C8
:100740002AF43A9500951095031B130BF894029F19
:10075000712C002D129F912C802C7894780C172DE1
:10076000921C292DB4E06B2E2695179507956A9457
:10077000D9F7332321F000951095031B130B08952F
:100780000091B8000430A1F1B0919600B15008F08A
:1007900010C0B0916100B093630020927E0020925F
:1007A0007F002092800020928100209282006F7D45
:1007B0001FC06090B8006062B0916100B0936200A9
:1007C00008E317EC20917A0030917B00369527954D
:1007D000B62DBA9541F036952795B62DBA95BA95AE
:1007E00011F0369527958DDF00937E0010937F00E2
:1007F000089500917E00B09162000B1B10917F0064
:10080000120928F40038BFEF1B0740F009C00F376A
:10081000120508F405C00FE710E002C000E81FEF62
:100820000093830010938400089500918300B09199
:1008300080000B0F10918400B09181001B1F20E0FD
:100840003091840033230AF42A95B09182002B1F43
:100850001AF4203F40F00AC02F3008F407C00FEF11
:100860001FEF2FE003C000E010E020EF30916300A5
:10087000B0919B003B1718F4323030F009C0B091B2
:100880008400BB235AF004C0B0918400BB2332F42F
:10089000009380001093810020938200089520919E
:1008A000DB0000918300000F10918400111F46DFD0
:1008B00011232AF40038BFEF1B0740F009C00F379F
:1008C000120508F405C00FE710E002C000E81FEFB2
:1008D000002352F0B0916200B01B0B2F18F00130D2
:1008E00008F00AC001E008C000950F5FB0916200F7
:1008F0000B0F08F001C00FEF0093850008952091C1
:10090000DC00009181001091820018DF11232AF48D
:100910000130BFEF1B0740F009C00F3F120508F47C
:1009200005C00FEF10E002C001E01FEF112352F0ED
:10093000B0918500B01B0B2F18F0013008F00AC0F1
:1009400001E008C000950F5FB09185000B0F08F023
:1009500001C00FEF0093630008950FEF71FD1EC0FB
:10096000B091D700BB23D1F0B0917B00BB23B1F095
:100970000FEF10917B00B7DEF894B091730072FD19
:10098000B5E00B9F112D002D7894112309F00FEF86
:10099000B0919E000B1710F400919E0000939D00F3
:1009A000089500917A0010917B0000541140B0919D
:1009B0009D0010F4BA9501C0B39511F0B0939D005D
:1009C000089500C008952091B900B6B1B6FDFBCFDF
:1009D00004B115B1B6B1BF77B6B9B091AA00B3955D
:1009E000B093AA00B83060F12092AA00B091D6006E
:1009F000BB2321F1112329F0B091AB00BF3F61F07F
:100A000009C0B091AB000B1739F020F4BB2321F0E3
:100A1000BA9502C0B395E1F300919B00B093AB008F
:100A2000BA3F50F400ECB93F38F400E8B83F20F486
:100A300000E4B73F08F400E000939B007F7E089538
:100A400010919B00B0E11B0F08F41FEF10939B0067
:100A5000B091B800B43081F000919B00B091630078
:100A6000B01B10F400916300B0919D000B1708F0CB
:100A70000B2F502E00936400B091AA00B73009F4F8
:100A80007061089501E0F894B091DD000B9F012D95
:100A9000000C001F7894B0919B000B1710F0009190
:100AA0009B000093610000936300502E009364004C
:100AB00000939E00089520927A00B0EFB0937B00DF
:100AC0000895F8940CB51DB5209174007894309178
:100AD0007500609076000093750010937600031BFC
:100AE000160971FD03C077FD80C028C070907700A3
:100AF000209377002709222319F00FEF1FEF0EC074
:100B0000809078009090790030937800609279001E
:100B100000917500109176000819190920917A004A
:100B200030917B0036952795020F131F10F40FEFBD
:100B30001FEF00937A0010937B002BC020917A0066
:100B400030917B003901B4E08B2EB2E09B2E343023
:100B500040F08A949A94383020F072FD02C08A9452
:100B60009A94769467948A94E1F726193709992024
:100B700021F0169507959A94E1F7200F311F2093E5
:100B80007A0030937B0028F43FEF30937A00309363
:100B90007B00323008F4706871FF02C0B3E00DC012
:100BA000B091C80000917100023838F0B395003A56
:100BB00008F0B395B63008F0B5E09B2EB4E08B2E6C
:100BC00010917B0000917A0024E0169507952A95F4
:100BD000E1F70819120928F0B02FB250B12FB2096D
:100BE00010F402E010E0980126C020917A003091C4
:100BF0007B0039017694679466946694669426190E
:100C0000320906950695200F321D20937A00309305
:100C10007B00323008F07F7704E0369527953695D3
:100C2000279526952695201B10F0223008F422E007
:100C300089019090C80060FDFECFE0908B00F0909D
:100C40008C006160B9B7B061B9BF380177FD41C0B0
:100C50007694679400938B0010938C00B92DB33079
:100C6000E1F0B0FD04C0060D171D930106C0000F92
:100C7000111F0250120922E030E0B92DB33068F0A4
:100C800020938D0030938E0000938700109388008E
:100C90006092890070928A003AC000938D00109390
:100CA0008E002093870030938800609289007092B4
:100CB0008A0071FF0DC0BFE0B0938D0020928E00BE
:100CC000B093890020928A00B0938B0020928C0010
:100CD0001EC0669400938B00B92DB33091F0B0FD27
:100CE00003C0060D262D03C0000F025022E0B92DCF
:100CF000B33038F020938D00009387006092890014
:100D000006C000938D0020938700609289000091B7
:100D10007C0002FD0350013031F495FD0FC0B0B7E7
:100D2000B77FB0BF11C0023039F4B0B7B860B0BF00
:100D3000B4E0B06CB7B908C095FDF1CFB0B7B860FA
:100D4000B0BFB5E0B06CB7B90091A200000F10F4CD
:100D5000BBE60B270093A20060FDFECFB2E0B0938C
:100D60006E006160B9B7B061B9BFB72FB670D1F08E
:100D700020917A0030917B003695279536952795FE
:100D800071FF02C0B0E43B0FF8940CB51DB5020F23
:100D9000131F1BBD0ABD6160B0E1B8BFB9B7B06138
:100DA000B9BF78940895686020927D0020E066FDC8
:100DB00020E206C0686020927D0020E266FD20E00F
:100DC00001E011E077FD11C0B72FB67009F0677F21
:100DD00014E100917B00069509F403950F3008F0AB
:100DE0000FE071FF02C004E114E160FD0FC0B0919B
:100DF0007D00BB2359F071FF06C0B0916E00BA951B
:100E0000B0936E0011F4706251C0ABDFB0B73B2FEE
:100E1000B77FB0BFB8B1B0B733FDB860B0BFB09165
:100E20007D00B395B0937D00B8B177FD06C0B1E009
:100E300071FDB3E0BA95F1F7B8B1B072B21709F02D
:100E40002AC071FF05C00395011708F00A95CDCFA0
:100E500063FD05C00395011708F0B2CFC6CF677FC9
:100E6000F8943CB56DB470907A00B0917B00770C2B
:100E7000BB1F08F4BFEF770CBB1F08F4BFEF370DA3
:100E80006B1E6BBC3ABD6160B0E1B8BFB9B7B06171
:100E9000B9BF789495CFB0916D00B13008F490CF80
:100EA00063FD8ECF0A9509F0A0CF7F7D20918D0044
:100EB00030918E00F894B0E1B8BF0CB51DB5020FAB
:100EC000131F1BBD0ABDE0908700F0908800616091
:100ED000B9B7B061B9BF7894B72FB67039F0B09197
:100EE0006D0072FFB395B0936D0009C075FF07C028
:100EF00066FD05C063FD03C0BF91BF9117C508958E
:100F000000E063FF01C001E0F89410917100B7E0C8
:100F10001B9F212D102D7894200F2695179526952F
:100F200017952695179510937100183718F4B8E7A0
:100F3000B093710000917100B09172000B1720F016
:100F40006061C098C198C29860FDFECFE0908900B2
:100F5000F0908A006160B9B7B061B9BF0895B2E09E
:100F600095FD0AC0F894B0937C009498939A62FF20
:100F700001C0C29A7894F4C0F894B0937C0094981D
:100F8000959A62FF01C0C09A7894EAC0B3E082FFEC
:100F900024C095FD11C002E0F894B0937C00E0E815
:100FA000F0E00093B100C298959862FF02C0C19A28
:100FB00001C0949A7894D4C002E0F894B0937C0075
:100FC000E0E8F0E00093B100C098939862FF02C09F
:100FD000C19A01C0949A7894C3C095FD0BC0F8944F
:100FE000B0937C00EAE6F0E0C29862FF01C0C19ACB
:100FF0007894B6C0F894B0937C00EAE6F0E0C0982C
:1010000062FF01C0C19A7894ABC0B4E095FD0AC0FC
:10101000F894B0937C009398959A62FF01C0C19AAE
:1010200078949EC0F894B0937C009598939A62FF50
:1010300001C0C19A789494C0B5E082FF24C095FDA8
:1010400011C001E0F894B0937C00E6E7F0E0009373
:10105000B100C198949862FF02C0C09A01C0939AEF
:1010600078947EC004E0F894B0937C00EAE8F0E065
:101070000093B100C198949862FF02C0C29A01C067
:10108000959A78946DC095FD0BC0F894B0937C0050
:10109000E4E6F0E0C19862FF01C0C09A789460C0B5
:1010A000F894B0937C00E0E7F0E0C19862FF01C0E3
:1010B000C29A789455C0B6E095FD0AC0F894B093F2
:1010C0007C009598949A62FF01C0C09A789448C0B9
:1010D000F894B0937C009398949A62FF01C0C29AEE
:1010E00078943EC0B1E082FF24C095FD11C004E0B9
:1010F000F894B0937C00EAE8F0E00093B100C09867
:10110000939862FF02C0C29A01C0959A789428C051
:1011100001E0F894B0937C00E6E7F0E00093B100C2
:10112000C298959862FF02C0C09A01C0939A7894C1
:1011300017C095FD0BC0F894B0937C00E0E7F0E099
:10114000C09862FF01C0C29A78940AC0F894B09324
:101150007C00E4E6F0E0C29862FF01C0C09A789497
:101160006F7E089523E630E0F9012092B100C09827
:10117000C198C2989398949895986B7F0895A6EB20
:10118000B0E009E00D9309E00D9304E00D930FEF3B
:101190000D9303E00D930FEF0D9309E00D9303E022
:1011A0000D9301E00D9301E00D93A2ECB0E001E09E
:1011B0000D930FEF0D930D930D930D930D9303E08E
:1011C0000D930FEF0D930FEF0D930D9301E00D9322
:1011D00002E30D9308E20D9300E50D9304E00D93F7
:1011E0000FEF0D9302E00D9300E00D9304E10D93DA
:1011F0000FEF0D9300E00D9301E00D9300E00D93D0
:1012000003E00D9300E00D9308952091BD008B7FC6
:10121000233009F48460B091BE00B33019F09F7D93
:10122000B1FD90629F7BB091BF00B1FD9064223010
:1012300011F0886001C0877F08950A95E00FF21DC4
:10124000B4910895ECE1F0E00091B600F6DFB093C0
:10125000DB00ECE1F0E00091B700EFDFB093DC00E1
:10126000EAE2F0E00091BC00E8DFB093DD0000911D
:10127000BC00023008F402E000937300B091D20089
:101280000FEFB23009F400EAB33009F402E800933A
:101290007200E8E3F0E00091D900CFDFB093A00046
:1012A000089508952091CC003091CD00B091BE00FA
:1012B000B33009F43E5097FF02C020E03FEFB32F58
:1012C000B21B6B2EB25810F4B2E86B2E00E00395FF
:1012D000609EB12DBD57D8F30093AC00089590687F
:1012E000E1DFB4D9B3D920E030E0B0E16B2EAAD968
:1012F000B09196002B0F321D6A94C9F7B4E0369571
:101300002795BA95E1F7822E9F77CCDF089529E1E2
:1013100029B920E020BD20E02BB928E12AB926E830
:1013200020BD5D9BFECF2CB9089520E32CB9089514
:10133000F894899A919829E129B920E020BD20E00C
:101340002BB928E12AB926E820BDF894E3E0F0E0C3
:10135000B9E0B7BFB491B07859F3F894A895B1B596
:10136000B861B1BDB0E0B1BDB4E0BEBFBFE5BDBFC7
:10137000F9DEB0E0B8BBB7E1B7BBB0E0B5BBB0E0F9
:10138000B4BBB0E0B2BBB8E3B1BB2224A0E0B0E094
:101390002D92AA31E9F7A0E6B0E00FEF2D920A9561
:1013A000E9F7B1E0B093A200EADEFCD2B0E0B06CA5
:1013B000B7B9B6B1B460B068B6B90091CE000093C9
:1013C000AD00B1E0B0936A00F894F8940AEF1AEF18
:1013D000A0B396FDA095A2FF1FC01A95C9F70A9564
:1013E000B1F7E0E0FCE1B591B43E39F4B591B03E1F
:1013F00021F4B591BF3F09F40CC0E0E0F395F395FB
:10140000B591B83F49F4B591B43931F4B591BA3AD0
:1014100019F4EE27F6950994F8DE14DF42DF42DF77
:101420000091CE000093AD009DDEB2E0B3BFB2E00C
:10143000BEBDB2E0B5BDB1E5B8BFB9BFB0B70B2F07
:10144000B77FB0BFB8B1B0B703FDB860B0BFF8D8D0
:101450007894B7DA20927000B3E096FDB2E0B5BFA1
:10146000B0E4BBBFBB27B064BABF8D7FF3D8626066
:1014700033E02CE0B0919500BB2321F42CE03A95A9
:1014800009F4A3CFE3D880FFA0CF8E7FB091960060
:10149000B23078F3B92FBF71009198000093970094
:1014A000B0939800B01729F72A9521F76D7FB3E024
:1014B00096FDB2E0B5BFBB27B064BABF8D7FB091D7
:1014C000D800BB2321F48062B92FB0709B2F8F7B93
:1014D00020926700BDD885FF05C0B0916700BA3083
:1014E00008F08064AFD802E085FF01C000E0B09151
:1014F0009600B017B8F3F8947894ACD82092860090
:10150000B091BE00B33009F47DC09CD8B091C20048
:10151000B13008F477C0B0916A00B13008F472C0FD
:1015200085FD18C0B0919600BF3F08F46BC0F894D9
:10153000A5D878948DD8B0919600B130C0F7F894C2
:1015400094D882D892D8789483D8B0919600BF3F2F
:10155000B0F3E9C2B3E09B2E9068F894A3DE7894D0
:1015600077D8F8949F779EDE80909600B091960091
:10157000BF37789408F44EC063D8F8947FD8789435
:101580009A9451F7ACDEB82DB093CD0063D8F8949F
:101590009DD27894BAE09B2E9068F89483DE78947C
:1015A00057D8F8949F777EDE80909600B091960091
:1015B000BF37789478F744D8F89457D845D855D899
:1015C00078949A9449F78BDEB82DBB5FB093CC002A
:1015D0000B2F1091CD00125810F0100B20F4B2E830
:1015E0000B0F0093CD0036D8F89409D27ED27894B0
:1015F0002FD8F89457DE7894B0919600BF3F08F446
:101600008FCF91C200919600B09186000B1710F019
:10161000009386001DD801E0B091BE00B35009F4DC
:1016200005E0B0919600B01708F06ACFF89478946E
:1016300011D820926A0020926B0020926C00B09129
:101640006B00B395B0936B00BF3F71F5B0916C0028
:10165000B395B0936C00B091D00009E1BA9559F000
:1016600002E3BA9541F00DE7BA9529F00AEFBA9571
:1016700011F020926C00B0916C00B017A8F072DDF0
:10168000DFD7B0916C00BA95B0936C0020926B00DC
:10169000B091CF00B093AD00F894F0D77894B091AA
:1016A000CE00B093AD00D4D7CFD7B0916800BB23A4
:1016B00019F485FF01C089CE01E085FD01C006E077
:1016C000B0919600B01708F4BACFB091BE00B350F5
:1016D00009F0BED7B0916800BB2309F476CEF89428
:1016E00041DD209261002092620020926300522C22
:1016F000209264002092A1007894B091BB00BB0FAF
:10170000B0939F0020927E0020927F002092800064
:1017100020928100209282002092AA0060E070E076
:1017200020927100B8E0B093AA00706189D7B0E050
:1017300074FDB1E0B06CB7B9B6B1B068B064B6B919
:10174000B6B1B6FDFDCF04B115B1B6B1BF77B6B92C
:10175000112309F00FEF0093AB0035D9B8E0B09337
:10176000AA00706152DDF894BFEFB0939B008AD954
:10177000B0916100B0939B00B0939C00B0939D002A
:101780007894B1E0B0936100B09363005B2EB093A6
:101790006400B093A400B0919A00B093A300B091FC
:1017A000BE00B33019F49F7D87FD90627160726056
:1017B00020926D0080DC96DC7ED983D97CD981D9DA
:1017C0007AD9F8DADDD70091B20007FF03950093CC
:1017D000B20096DBC4DB75D9E6DA65FD0AD877FF7F
:1017E000BCD877FDDED88CDBD1DB6BD9E3DA65FDC5
:1017F0001CD886DB0ADC65D9D6DA65FD50D880DBDB
:101800001BDC5FD9D7DA65FD7AD87ADB54DC59D98D
:10181000CADAB0E074FDB1E0B06CB7B9B6B1B06887
:10182000B064B6B96DDB5EDC4CD9CDD871FF24C095
:10183000B0919E00B0939B00B0939C00B0919A0031
:10184000B093A300B1E0B093A40018E12CE0B091F4
:101850006D00B11758F07D7F746020936F00B091D8
:101860009E00B0939B00B0939D0006C0B09196007F
:10187000B13008F0A6CF64C072FF15C066FD13C07A
:10188000B0916F00BA9519F47B7F78609ACFB093CE
:101890006F00B0919600B13008F093CFB091BE00C8
:1018A000B33009F04DC020927000B09199000AEF5A
:1018B0001091DA00112309F003E0B01708F040C0DE
:1018C00085FF04C0B0916800BB23D1F1B091BE0088
:1018D000B33081F495FD03C087FD04C00BC087FFC2
:1018E00001C008C066FD06C06064B0919E00B09360
:1018F0009B0082CF00EF66FF05C0B0919E00B093C1
:101900009B0000E2B0917B00B01708F45ACF66FF4D
:1019100017C06F7B9F7D87FD90627460B2E1B093CA
:101920006F00B0919E00B0939B004BCFB0917000C0
:10193000B395B0937000B0919600BB2309F002C03C
:1019400020927000F8940EDC8090BD00B2E0B0935D
:10195000BD005BDC8092BD0020926100209262009D
:1019600020926300522C2092640020929F0060E03D
:1019700070E078946DD6F6DB0091DA00002319F060
:10198000C09AC19AC29AB0E0B06CB7B9B6B1B460AF
:10199000B068B6B985FF05C0B0917000B43008F0EA
:1019A00014CD49CEEDE0F0E023D0053509F01BC0A1
:1019B000EEE0F0E01DD00A3A09F015C03AE0A6EBDF
:1019C000B0E0E3E0F0E014D00D9331963A95D9F70A
:1019D00039E1A2ECB0E0EFE0F0E00AD00D933196EF
:1019E0003A95D9F702C0CBDB0AD0E8E2F0E00895DF
:1019F000E199FECFEEBBFFBBE09A0DB308951ED078
:101A00003AE0A6EBB0E0E3E0F0E00D910FD03196C4
:101A10003A95D9F739E1A2ECB0E0EFE0F0E00D91B2
:101A200005D031963A95D9F712D00895E199FECFB5
:101A30000DBBEEBBFFBBE29AE19A0895EDE0F0E04A
:101A40000FEFF4DFEEE0F0E00FEFF0DF0895EDE0F0
:101A5000F0E005E5EBDFEEE0F0E00AEAE7DF08950D
:101A60003091AE000091AF00313011F40093B60018
:101A7000323011F40093B700333011F40093B80002
:101A8000343011F40093BA00353011F40093BC00E7
:101A9000363011F40093C800373011F40093BD00C4
:101AA000383011F40093D900393011F40093D2008A
:101AB0003A3011F40093BE003B3011F40093BF00A4
:101AC000089525E0C7D52A95E9F70895CED5D0D554
:101AD000D2D5D4D5B9D5C9D5CBD5CDD5CFD5B4D51B
:101AE000C4D5C6D5C8D5CAD50895C8D5C4D5C0D51E
:101AF000BCD5AAD5C3D5BFD5BBD5B7D5A5D5BED581
:101B0000BAD5B6D5B2D508958090AE009090AF000A
:101B1000ACD5ABD5AAD598D58A94D1F7AFD594D505
:101B20009A94E1F70895F894D1DF7894CADFC9DF79
:101B3000B1E0B093AE00B1E0B093AF002092B0003E
:101B4000F894E2DF7894B5E06B2E7090960082D521
:101B5000B09196007B16C9F7B13018F0BF3F40F145
:101B600007C07EDFF8944BDFB1DFB8E0B1BDA9DF7D
:101B70006A9459F7B091B000B395B093B000B33008
:101B800008F4DECF9EDFB091AF00B395B093AF0005
:101B9000F894B091AE00BA95EEE3F0E0EB0FF21DD1
:101BA000049178940395B091AF00B01708F4C6CFB4
:101BB00088DF87DFB091AE00B395B093AE00B091EF
:101BC000AE00BC3008F4B7CFDADAF89418DFB8E02A
:061BD000B1BD77DFADCBD3
:00000001FF
